:100000000C943E000C9453000C9453000C94530039
:100010000C9453000C9453000C9453000C94530014
:100020000C9453000C9453000C9453000C94530004
:100030000C9453000C9453000C9453000C945300F4
:100040000C9453000C9453000C9453000C945300E4
:100050000C9453000C9453000C9453000C945300D4
:100060000C9453000C9453000C9453000C945300C4
:100070000C9453000C9453000C94530011241FBE95
:10008000CFEFD8E0DEBFCDBF11E0A0E0B1E0E6EFFA
:10009000F1E002C005900D92AA30B107D9F70E9495
:1000A000D9000C94F9000C9400009C012115310535
:1000B00009F408958FEC97E00197F1F700C0000074
:1000C00021503109F3CF2F923F924F925F926F925E
:1000D0007F928F929F92AF92BF92CF92DF92EF92D8
:1000E000FF920F931F93CF93DF93CDB7DEB72A977D
:1000F0000FB6F894DEBF0FBECDBFBC018AE0E0E0D2
:10010000F1E0DE01119601900D928A95E1F788EEFB
:1001100093E00E94E5007B0180ED97E00E94E500FE
:100120003B018E010F5F1F4F2E0185E1480E511CD0
:1001300084E6282E312CF801219131918F012E9DDA
:10014000C0012F9D900D3E9D900D1124B1010E9484
:10015000E5005B014701861A970AC12CD12C289A29
:10016000C5010E9455002898C4010E945500FFEF68
:10017000CF1ADF0A6C147D0491F704151505D9F622
:100180002A960FB6F894DEBF0FBECDBFDF91CF9198
:100190001F910F91FF90EF90DF90CF90BF90AF90A5
:1001A0009F908F907F906F905F904F903F902F9097
:1001B000089584B1836084B98CE390E00E94630069
:1001C00080E991E00E946300F7CFAA1BBB1B51E1BD
:1001D00007C0AA1FBB1FA617B70710F0A61BB70BB7
:1001E000881F991F5A95A9F780959095BC01CD015C
:0601F0000895F894FFCF12
:0A01F6000000190032004B00640005
:00000001FF
