:100000000C943E000C9458000C9450000C9450003A
:100010000C9450000C9450000C9450000C94500020
:100020000C9450000C9450000C9450000C94500010
:100030000C9450000C9452000C9450000C945000FE
:100040000C9450000C9450000C9450000C945000F0
:100050000C9450000C9450000C9450000C945000E0
:100060000C9450000C9450000C9450000C945000D0
:100070000C9450000C9450000C94500011241FBE9E
:10008000CFEFD8E0DEBFCDBF21E0A0E0B1E001C0FE
:100090001D92A230B207E1F70E9489000C94BD00C6
:1000A0000C9400008F9381E0809301018F9118954B
:1000B0008F938FB78F939F938FE59AEE0197F1F708
:1000C00000C000004A9B03C081E080930001E09AD9
:1000D0009F918F918FBF8F9118951092010110926F
:1000E000850010928400909389008093880010927C
:1000F00080008DE0809381001092820082E08093E6
:100100006F000895F89483E081B95298E898789444
:1001100008950E9482002FEF83E294EF21508040E7
:100120009040E1F700C0000081E082B92FEF80E746
:1001300092E0215080409040E1F700C0000012B8EA
:1001400084E89EE10E946D00E89A809169008360D6
:100150008093690080910101811104C080910001A8
:100160008115C1F3F89480910001811519F082E0A6
:0E01700082B9FFCF81E082B9FCCFF894FFCFB7
:00000001FF
