:100000000C9440000C9468000C9468000C946800F8
:100010000C9468000C9468000C9468000C946800C0
:100020000C9468000C9468000C9468000C946800B0
:100030000C9468000C9468000C9468000C946800A0
:100040000C9468000C9468000C9468000C94680090
:100050000C9468000C9468000C9468000C94680080
:100060000C9468000C9468000C9468000C94680070
:100070000C9468000C9468000C9468006A026E028C
:1000800011241FBECFEFD8E0DEBFCDBF11E0A0E04E
:10009000B1E0EAE0F5E002C005900D92A033B107AF
:1000A000D9F721E0A0E3B1E001C01D92A133B2076E
:1000B000E1F710E0CFE3D0E004C02197FE010E94F9
:1000C0007202CE33D107C9F70E945F020C94780206
:1000D0000C9400002FE241E051E060E070E080E32A
:1000E00091E00E943C028DE795EE0197F1F700C088
:1000F00000000895CF93DF93CDB7DEB7AF970FB66B
:10010000F894DEBF0FBECDBF2FE2AE014F5F5F4F51
:1001100060E070E080E391E00E942A01FE013196E8
:10012000A1E0B1E0CE01C09631912D9132130DC006
:10013000E817F907C9F781E0AF960FB6F894DEBF6C
:100140000FBECDBFDF91CF91089580E0F5CF93E052
:1001500091B9811519F082E082B9089581E0FCCF50
:10016000089580EA809300011092B90080E28093A4
:10017000B8000895FC0180E88083CF010C94B100A1
:10018000843028F4880F806A8093000108958FEFEF
:100190000895FA0194EA24E89093BC008091BC0091
:1001A00087FFFCCF809100018093BB002093BC00AF
:1001B0008091BC0087FFFCCF8091B900883161F746
:1001C00084EA8093BC008091BC0087FFFCCF8091C3
:1001D00000018093BB0084E88093BC008091BC0048
:1001E00087FFFCCF7093BB0084E88093BC008091B4
:1001F000BC0087FFFCCF6093BB0084E88093BC0009
:100200008091BC0087FFFCCF8091BC0087FFFCCFB2
:1002100084EA8093BC008091BC0087FFFCCF809172
:1002200000018F5F8093BB0084E88093BC008091C5
:10023000BC0087FFFCCF84E88093BC008091BC00A9
:1002400087FFFCCF8091BB00808384E98093BC0052
:1002500080E0089594EA34E89093BC008091BC005B
:1002600087FFFCCF809100018093BB003093BC00DE
:100270008091BC0087FFFCCF8091B900883161F785
:1002800084EA8093BC008091BC0087FFFCCF809102
:1002900000018093BB0084E88093BC008091BC0087
:1002A00087FFFCCF7093BB0084E88093BC008091F3
:1002B000BC0087FFFCCF6093BB0084E88093BC0048
:1002C0008091BC0087FFFCCF84EA8093BC008091C2
:1002D000BC0087FFFCCF809100018F5F8093BB0043
:1002E00084E88093BC008091BC0087FFFCCF84EC45
:1002F000211105C084E98093BC0080E0089521307D
:1003000009F484E88093BC009091BC0097FFFCCF77
:10031000FA019091BB0091932150AF01E9CF94EA8B
:1003200024E89093BC008091BC0087FFFCCF8091B3
:1003300000018093BB002093BC008091BC0087FF2C
:10034000FCCF8091B900883161F784EA8093BC00CA
:100350008091BC0087FFFCCF809100018093BB009F
:1003600084E88093BC008091BC0087FFFCCF709331
:10037000BB0084E88093BC008091BC0087FFFCCF69
:100380006093BB0084E88093BC008091BC0087FF31
:10039000FCCF4093BB0084E88093BC008091BC00FC
:1003A00087FFFCCF84E98093BC0080E00895CF9361
:1003B000DF93FB01260F372F311DEC01888181501F
:1003C000990B862B9F2B2817390718F09C012F5F5C
:1003D0003F4F822F8E1B24EA34E82093BC0090917B
:1003E000BC0097FFFCCF909100019093BB0030932D
:1003F000BC009091BC0097FFFCCF9091B900983160
:1004000061F794EA9093BC009091BC0097FFFCCFF9
:10041000909100019093BB0094E89093BC00909160
:10042000BC0097FFFCCFF093BB0094E89093BC0016
:100430009091BC0097FFFCCFE093BB0094E89093B1
:10044000BC009091BC0097FFFCCF982F24E891113D
:1004500006C094E99093BC00DF91CF910895DA0132
:100460003D913093BB002093BC003091BC0037FF1E
:10047000FCCF9150AD01EBCFDF92EF92FF920F9343
:100480001F93CF93DF93D82ED92F7B018A01C22FE0
:100490002C2FA801B7018D2D9D2F0E94D701E80EAA
:1004A000F11CC81B080F111DC111F2CF80E0DF91B4
:1004B000CF911F910F91FF90EF90DF90089580E30F
:1004C00091E00E94B1000E946A000E947A000E949E
:1004D000A700FFCF80E391E00C94BA0080E391E0A5
:1004E0000C94B000EE0FFF1F0590F491E02D0994DD
:1004F00010E0CFE3D0E004C0FE010E94720221961A
:0A050000C034D107C9F7F894FFCF0B
:10050A00A02A502A4F2A4C2A592A542A452A432AD1
:10051A00482A4E2A492A512A552A452A202A4D2A4A
:10052A004F2A4E2A542A522A452A412A4C2A000086
:00000001FF
