:100000000C943E000C9452000C9450000C94500040
:100010000C9450000C9450000C9450000C94500020
:100020000C9450000C9450000C9450000C94500010
:100030000C9450000C9450000C9450000C94500000
:100040000C9450000C9450000C9450000C945000F0
:100050000C9450000C9450000C9450000C945000E0
:100060000C9450000C9450000C9450000C945000D0
:100070000C9450000C9450000C94500011241FBE9E
:10008000CFEFD8E0DEBFCDBF21E0A0E0B1E001C0FE
:100090001D92A230B207E1F70E94AD000C94D5008A
:1000A0000C9400001F921FB61F9211248F939F93F0
:1000B0008FE59AEE0197F1F700C0000080910001F2
:1000C0004A9B1AC081110DC081E08093000180918C
:1000D0006900826080936900809169008E7F8093BF
:1000E000690080910101833029F198F4813001F198
:1000F0008230D1F483E019C0811599F31092000188
:1001000080916900816080936900809169008D7F92
:10011000E6CF843089F0853089F0E09A9F918F9105
:100120001F901FBE1F90189581E080930101F5CFAD
:1001300082E0FBCF84E0F9CF85E0F7CF1092010198
:10014000ECCFF89483E081B95298E89AE9E6F0E0C0
:10015000808183608083789408950E94A10021E0CB
:1001600092E0809101018330E1F030F4813051F070
:100170008230B9F482B9F5CF8430A9F0853089F79F
:1001800092B9EFCF82B9EFE1FEE43197F1F700C009
:10019000000092B9EFE1FEE43197F1F700C00000F2
:0E01A000E0CF22B9DECF12B8DCCFF894FFCF4B
:00000001FF
