:100000000C943E000C9448000C9448000C9448005A
:100010000C9448000C9448000C9448000C94480040
:100020000C9448000C9448000C9448000C94480030
:100030000C9448000C9448000C9448000C94480020
:100040000C9448000C9448000C9448000C94480010
:100050000C9448000C9448000C9448000C94480000
:100060000C9448000C9448000C9448000C944800F0
:100070000C9448000C9448000C94480011241FBEB6
:10008000CFEFD8E0DEBFCDBF0E94B2000C94F300EA
:100090000C9400009C012115310509F4089582E0BB
:1000A0008A95F1F700C021503109F5CF6F927F9208
:1000B0008F929F92AF92BF92CF92DF92EF92FF9278
:1000C0000F931F93CF93DF9321E030E0D22F01C035
:1000D000DD0F8A95EAF7C12CD12C0EE110E094E6F1
:1000E000792E48EEE42E43E0F42E01C0220F6A95EB
:1000F000EAF72D2BC22FC095C601B8010E94D0008F
:10010000272D261B30E0AAE0B0E00E94E4004B015E
:100110005701A61AB70A8EE1682E85B18D2B85B9D5
:10012000C4010E944A0085B18C2385B9C5010E9493
:100130004A006A9491F78EE1C80ED11C88EBC8166C
:100140008BE0D806C9F6DF91CF911F910F91FF90F8
:10015000EF90DF90CF90BF90AF909F908F907F9067
:100160006F90089584B1836084B960E081E00E945B
:1001700056002FEF84E39CE0215080409040E1F74F
:1001800000C0000061E080E00E9456002FEF84E391
:100190009CE0215080409040E1F700C00000E5CF96
:1001A000AA1BBB1B51E107C0AA1FBB1FA617B7079D
:1001B00010F0A61BB70B881F991F5A95A9F78095B9
:1001C0009095BC01CD010895A29FB001B39FC001DD
:1001D000A39F700D811D1124911DB29F700D811D73
:0A01E0001124911D0895F894FFCF3B
:00000001FF
