:100000000C943E000C9453000C9453000C94530039
:100010000C9453000C9453000C9453000C94530014
:100020000C9453000C9453000C9453000C94530004
:100030000C9453000C9453000C9453000C945300F4
:100040000C9453000C9453000C9453000C945300E4
:100050000C9453000C9453000C9453000C945300D4
:100060000C9453000C9453000C9453000C945300C4
:100070000C9453000C9453000C94530011241FBE95
:10008000CFEFD8E0DEBFCDBF11E0A0E0B1E0E0E609
:10009000F1E002C005900D92A631B107D9F70E9498
:1000A000A7000C94AE000C9400001092C5008FECD9
:1000B0008093C40088E18093C10086E08093C200F1
:1000C00008959091C00095FFFCCF8093C6000895DD
:1000D000AF92BF92DF92EF92FF920F931F93CF9355
:1000E000DF93CDB7DEB765970FB6F894DEBF0FBECE
:1000F000CDBF25E1E0E0F1E0CE010196DC01019009
:100100000D922A95E1F724E6F22ED82EE92E5E0113
:1001100085E1A80EB11C0D2D1E2DF80181918F01D6
:100120000E9461000A151B05C1F7FA94A1F76596B4
:100130000FB6F894DEBF0FBECDBFDF91CF911F91F8
:100140000F91FF90EF90DF90BF90AF9008950E94C5
:1001500055000E94680080E090E00895F894FFCF79
:100160004C6520726F626F7420656E20494E463177
:060170003930300A0000E6
:00000001FF
